:100000000C9457000C947F000C947F000C947F009C
:100010000C947F000C947F000C947F000C947F0064
:100020000C947F000C947F000C947F000C947F0054
:100030000C947F000C947F000C947F000C947F0044
:100040000C947F000C947F000C947F000C947F0034
:100050000C947F000C9481000C947F000C947F0022
:100060000C947F000C947F000C947F000C947F0014
:100070000C947F000C947F000C947F000C947F0004
:100080000C947F000C947F000C947F000C947F00F4
:100090000C947F000C947F000C947F000C947F00E4
:1000A0000C947F000C947F000C947F00B70A1124FD
:1000B0001FBECFEFDAE0DEBFCDBF15E0A0E0B1E0BC
:1000C000EAE1F5E202C005900D92A431B107D9F73B
:1000D00025E0A4E1B5E001C01D92A53FB207E1F71C
:1000E00010E0CEEAD0E004C02297FE010E948F0EFD
:1000F000CC3AD107C9F70E94AE0A0C948B120C942B
:1001000000001F920F920FB60F9211242F933F936E
:100110004F935F936F937F938F939F93AF93BF930F
:10012000EF93FF9385B18F7085B945B180916505D7
:1001300090E0FC01E15FFE4F208150E1259F90019E
:100140001124242B25B9FC01EA59FA4F8081882318
:1001500011F0769A01C07698289881E090E000909E
:10016000650502C0880F991F0A94E2F78EBD0DB491
:1001700007FEFDCF289A9091070180910801891709
:10018000D0F46091740582E795E00E94C10B9091D4
:100190000801891750F06091740582E795E00E948C
:1001A000C10B90910701891718F080910D011CC0B7
:1001B00080910E0119C06091740582E795E00E945C
:1001C000C10B90910701891768F06091740582E76F
:1001D00095E00E94C10B90910801891718F4809155
:1001E0000D0102C080910E01853059F168F4823012
:1001F00099F020F4813009F047C04CC0833099F069
:10020000843009F041C016C0873049F108F18830C8
:1002100069F18930C9F531C0EFE8F1E03197F1F7C4
:1002200000C0000037C0EFE1F3E03197F1F700C004
:10023000000030C0EFEAF4E03197F1F700C00000B1
:1002400029C0EFE3F6E03197F1F700C0000022C0CB
:10025000EFECF7E03197F1F700C000001BC0EFE5CD
:10026000F9E03197F1F700C0000014C0EFEEFAE0BA
:100270003197F1F700C000000DC0EFE7FCE03197C7
:10028000F1F700C0000006C0EFE7FCE03197F1F79E
:1002900000C0000028981EBC0DB407FEFDCF289AB0
:1002A000853079F160F48230B9F020F4813009F0C2
:1002B00043C00BC08330B9F08430F1F51BC08730E8
:1002C00071F130F18830C1F531C08FE79CE00197C2
:1002D000F1F700C0000030C0EFEEFAE03197F1F71F
:1002E00000C0000029C08FE599E00197F1F700C038
:1002F000000022C0EFECF7E03197F1F700C00000FA
:100300001BC08FE396E00197F1F700C0000014C016
:10031000EFEAF4E03197F1F700C000000DC08FE183
:1003200093E00197F1F700C0000006C0EFE8F1E0AC
:100330003197F1F700C00000809165058F5F88302C
:1003400018F48093650502C01092650580916E05D2
:1003500090916F05019690936F0580936E05A99A11
:10036000FF91EF91BF91AF919F918F917F916F918D
:100370005F914F913F912F910F900FBE0F901F9063
:10038000189514BE88E10FB6F8948093600010921F
:1003900060000FBE219A229A8CB580618CBD8CB50D
:1003A0008D7F8CBD8CB58E7F8CBD8DB58E7F8DBDC8
:1003B0008CB5877F8CBD8CB58B7F8CBD8CB58F7DCC
:1003C0008CBD8CB580648CBD3F9A1BB881ED95E0E7
:1003D0000E94CF0D88E895E00E94C50C84E690E06D
:1003E000EFE3FCE93197F1F700C000000197C1F796
:1003F00082E795E00E94430B209A2898249A259A38
:10040000269A279A6E9AF999FECF8AE090E00E9488
:100410002E1190930C0180930B01F999FECF88E087
:1004200090E00E942E1190930A0180930901F9999E
:10043000FECF86E090E00E942E11909305018093FC
:100440000401F999FECF85E090E00E942611809387
:100450006205F999FECF84E090E00E942611809316
:100460000E01F999FECF83E090E00E94261180935F
:100470000D01F999FECF82E090E00E942611809351
:100480000801F999FECF81E090E00E942611809347
:100490000701F999FECF80E090E00E942611809339
:1004A0000601EEE6F0E080818B7F808380818D7F86
:1004B000808380818E7F808385B5877F85BD84B56D
:1004C000826084BD84B58E7F84BD85B58B7F85BDFC
:1004D00085B5826085BD85B5816085BD16BC89EF17
:1004E00087BDA99A8081826080832EE088E190E0B8
:1004F0000FB6F894A895809360000FBE209360001B
:10050000789408952F923F924F925F926F927F92CC
:100510008F929F92AF92BF92CF92DF92EF92FF9213
:100520000F931F93CF93DF93CDB7DEB765970FB6C9
:10053000F894DEBF0FBECDBF81E1E7E1F1E0DE015F
:10054000119601900D928A95E1F7809104019091A6
:100550000501909361058093600581E080936605B5
:1005600080936705809368058093690580936A0589
:1005700080936B0580936C0580936D0585E090E01A
:100580009B8B8A8B0F2EFFE0AF2EF1E0BF2EF02D5C
:100590000F2EF0E18F2EF1E09F2EF02D0F2EF1E1C6
:1005A0006F2EF1E07F2EF02D0F2EF2E14F2EF1E0B5
:1005B0005F2EF02D44C0F80131908F01F50130829B
:1005C0000196F70131907F01F4013082F6013190FC
:1005D0006F01F3013082FB013190BF01F2013082E3
:1005E000EC89FD893190FD8BEC8BE3E1F1E0308209
:1005F000F90131909F01E4E1F1E030823D90E5E1C5
:10060000F1E03082FA013190AF01E6E1F1E03082B1
:10061000EFE3FCE93197F1F700C00000EFE3FCE9FC
:100620003197F1F700C00000A8958A30910519F6BE
:100630008A899B8901979B8B8A8B892B19F18E0163
:100640000F5F1F4F6894EE24E1F8F12CEC0EFD1EB5
:100650000F2EF3E0CF2ED12CF02DCC0EDD1EBE01DF
:100660006C5F7F4FAE014B5F5F4F9E012A5F3F4F34
:10067000DE011796FE01389680E090E05D8B4C8B92
:10068000AF0199CFEFE0F1E0A6E6B5E087E191E0B8
:1006900011921D92E817F907D9F71092610510928F
:1006A000600565960FB6F894DEBF0FBECDBFDF9133
:1006B000CF911F910F91FF90EF90DF90CF90BF905F
:1006C000AF909F908F907F906F905F904F903F90F2
:1006D0002F9008952F923F924F925F926F927F9248
:1006E0008F929F92AF92BF92CF92DF92EF92FF9242
:1006F0000F931F93CF93DF93CDB7DEB7C456D109C5
:100700000FB6F894DEBF0FBECDBF8CE4E8E2F1E097
:10071000DE01119601900D928A95E1F788E0E4E7F9
:10072000F1E0DE01A95ABF4F01900D928A95E1F7E1
:100730001092660507E615E0F80110821092680530
:100740001092690510926A0510926B0510926C0563
:1007500010926D05809104019091050190936105BF
:10076000809360050E94E40E64E170E00E94650ED3
:10077000FC01EE0FFF1FEE0FFF1F81E090E08C0FDA
:100780009D1FE80FF91F83818F9382818F93818151
:100790008F9380818F938CE791E09F938F93CE010D
:1007A000835B9F4F9F938F930E94280F8FE08093CE
:1007B000100181E0F80180830E94E40E60E971E09D
:1007C0000E94650E3C010FB6F894DEBF0FBECDBF90
:1007D00016141704E4F03AC00E94E40EB6010E9419
:1007E000650EF80181938F01F70130820A151B0510
:1007F00099F78FE99FE00197F1F700C00000A895F5
:100800009FEF891A990A86149704F1F41FC0812C6E
:10081000912C0F2EFFE04F2EF1E05F2EF02D0F2ECA
:10082000F7E1AF2EF1E0BF2EF02D0F2EFAE0CF2E24
:10083000D12CF02D0F2EF0E1EF2EF1E0FF2EF02D58
:100840000F2EFFE03F2EF02D8201C6CF2E968FADEA
:100850002E97805380930F010F2EF7E5CF2ED12CCA
:10086000F02DCC0EDD1EE8E0CE0ED11CA4961FAEFE
:10087000A497A5961FAEA5970F2EFAE02F2E312C28
:10088000F02D0F2EF7E54F2E512CF02D4C0E5D1E46
:1008900082E090E0480E591E0F2EF1E16F2EF1E03C
:1008A0007F2EF02D0E94E40E66E070E00E94650E3F
:1008B000A3969FAF8EAFA3970296A1969FAF8EAFE0
:1008C000A197E7E5F0E0EC0FFD1FE80FF91F80812D
:1008D000813041F30E94E40E68EC70E00E94650EE6
:1008E0004C01181619060CF125C00E94E40EF801FF
:1008F00021918F01211105C0B1010E94650EF70100
:100900008083FFEFEF1AFF0A0C151D0571F78FE9C1
:100910009FE00197F1F700C00000A8959FEFA91A8A
:10092000B90AA814B90419F405C0A12CB12C82018C
:100930007301DBCFA196EEADFFADA197E15FFE4F56
:10094000ADE4B0E0AC0FBD1FA3968EAD9FADA397F5
:10095000A80FB91F11968C9180538083E7E5F0E0D2
:10096000EC0FFD1FA1968EAD9FADA197E80FF91F6B
:1009700081E08083FE01E95AFF4F81E090E0A49678
:100980003FADA497A5964FADA5972191211102C027
:10099000832F942FEC15FD05C1F7892B09F482CF25
:1009A0008091040190910501909361058093600509
:1009B000CC59DF4F0FB6F894DEBF0FBECDBFDF912D
:1009C000CF911F910F91FF90EF90DF90CF90BF904C
:1009D000AF909F908F907F906F905F904F903F90DF
:1009E0002F900895AF92CF92EF920F931F93CF93D2
:1009F000DF9380916E0590916F05883E934008F4D7
:100A000040C18091600590916105009709F0CDC0CB
:100A100082E795E00E94D80B809163059091640570
:100A200020910B0130910C012817390708F474C08C
:100A3000109266051092670510926805109269057C
:100A400010926A0510926B0510926C0510926D055C
:100A50008091620581112BC08FE080930F018091FE
:100A60000601813049F480917E05809310018091C8
:100A70007F058093110108C080918005809310014B
:100A8000809181058093110180917C0580931201F2
:100A900080917D058093130180917A0580931401E4
:100AA00080917B05809315018FE0809316018091E2
:100AB0006205813009F06AC080910601813049F4F5
:100AC00080917E0580930F0180917F0580931001B6
:100AD00008C08091800580930F01809181058093EB
:100AE00010018FE08093110190917C059093120189
:100AF00090917D05909313018093140180917A0564
:100B00008093150180917B058093160181E080938D
:100B1000680580936B053AC01092660510926705D0
:100B2000109268051092690510926A0510926B0583
:100B300010926C0510926D0542E040930F011092E7
:100B40001001409186054093110140918705409323
:100B50001201409184054093130140918505409313
:100B60001401409182054093150140918305409303
:100B700016014091090150910A01240F351F821777
:100B8000930720F01092640510926305809163052D
:100B9000909164050196909364058093630580911C
:100BA000600590916105009729F001979093610588
:100BB000809360058091700590917105892B41F4B7
:100BC00081E090E09093710580937005479A05C08D
:100BD0001092710510927005479810926F0510924F
:100BE0006E054FC081ED95E00E94340EE0913C050A
:100BF000F0913D05E25CFA4F8083682F81ED95E02E
:100C00000E94FE0DE0913C05F0913D05E25CFA4F3B
:100C100080818D3081F46AE081ED95E00E94FE0DC7
:100C2000E0913C05F0913D05E25CFA4F1082109393
:100C30005F0500935E0580913C0590913D0501960E
:100C4000803291052CF490933D0580933C0504C0BF
:100C5000D0933D05C0933C0580915E0590915F0562
:100C6000019799F480913C0590913D05019769F4B5
:100C700010923D0510923C0510925F0510925E05A2
:100C800004C001E010E0CFE1D0E081ED95E00E94EA
:100C90004D0E892B09F0A6CF80915E0590915F05DE
:100CA000019709F052C460913C0570913D058B019C
:100CB0000150110910161106CCF4EEE3F5E0CB015A
:100CC000835C9A4F21E030E040E050E0A191A032F7
:100CD00031F0AE3221F0A053AA3008F09A01E817A3
:100CE000F907A1F72130310509F05FC0AFE0B1E0AD
:100CF000C6E6D5E087E191E02FE02D931992A81781
:100D0000B907D9F711230CF447C0FB01E25CFA4F95
:100D10002EE335E0DF0187E090E06FE04E91542F45
:100D200050535A3040F499237CF0EC01C15FDE4F00
:100D30005883019709C0403239F499232CF0EC0113
:100D4000C15FDE4F68830197A217B30739F740E010
:100D500050E088E090E061E070E011E0A0E0B0E0F9
:100D6000C291DC2FD053DA3010F0C03231F41816B3
:100D7000190674F40197AB010CC0CE3251F4413026
:100D8000510539F4EC01CA59DA4F1883AD0101C09D
:100D9000AB012E173F0721F78091040190910501C7
:100DA0009093610580936005C8C3232B09F0C5C3E8
:100DB00044E050E062E871E08EE395E00E94120F9B
:100DC000282F392F232B09F06CC067E871E081EDE3
:100DD00095E00E94060E60EA71E081ED95E00E94C8
:100DE000060E6AEB71E081ED95E00E94060E63ED60
:100DF00071E081ED95E00E94060E67EE71E081EDF5
:100E000095E00E94060E6CEF71E081ED95E00E9486
:100E1000060E6AE172E081ED95E00E94060E66E33F
:100E200072E081ED95E00E94060E63E572E081EDCF
:100E300095E00E94060E6EE672E081ED95E00E945C
:100E4000060E6AE872E081ED95E00E94060E67EA00
:100E500072E081ED95E00E94060E6BEC72E081ED90
:100E600095E00E94060E64EE72E081ED95E00E942E
:100E7000060E61E073E081ED95E00E94060E68E4E5
:100E800073E081ED95E00E94060E62E273E081ED71
:100E900095E00E94060E65E473E081ED95E00E9406
:100EA000060E4FE050E06BE473E08EE395E00E94A5
:100EB000120F282F392F232B11F58DE495E00E9476
:100EC000F40E82309105D8F48093620599279F93A0
:100ED0008F938BE593E09F938F9384E195E09F93AD
:100EE0008F930E94280F64E175E081ED95E00E94E8
:100EF000060E0F900F900F900F900F900F9049E0FB
:100F000050E068E673E08EE395E00E94120F282F10
:100F1000392F232B09F044C08091520520E1829F94
:100F2000C0011124909153059F70A92EA82A809189
:100F3000500520E1829FC0011124909151059F70BE
:100F4000C92EC82A80914E0520E1829FC00111243C
:100F500090914F059F70E92EE82A80914B0520E182
:100F6000829FC001112400914C050F70082B8091C5
:100F7000490520E1829FC001112440914A054F702C
:100F8000482B8091470520E1829FC0011124609188
:100F900048056F70682B21E082E795E00E94500BB6
:100FA00041E150E062E773E08EE395E00E94120FAA
:100FB000282F392F232B01F58FE495E00E94F40EA2
:100FC00080930B0190930C019F938F938BE593E09B
:100FD0009F938F9384E195E09F938F930E94280FB6
:100FE00064E175E081ED95E00E94060E0F900F9090
:100FF0000F900F900F900F904CE050E064E873E07A
:101000008EE395E00E94120F282F392F232B01F534
:101010008AE495E00E94F40E8093090190930A01FE
:101020009F938F938BE593E09F938F9384E195E05B
:101030009F938F930E94280F64E175E081ED95E006
:101040000E94060E0F900F900F900F900F900F9030
:101050004DE050E061E973E08EE395E00E94120FED
:10106000282F392F232B01F58BE495E00E94F40EF5
:1010700080930401909305019F938F938BE593E0F8
:101080009F938F9384E195E09F938F930E94280F05
:1010900064E175E081ED95E00E94060E0F900F90DF
:1010A0000F900F900F900F9046E050E06FE973E0C3
:1010B0008EE395E00E94120F282F392F232B41F445
:1010C0000E94820266EA73E081ED95E00E94060EBE
:1010D00045E050E06CEA73E08EE395E00E94120F69
:1010E000282F392F232B11F40E946A0343E150E08B
:1010F00062EB73E08EE395E00E94120F282F392FE8
:10110000232B29F581E595E00E94F40E9C012150E6
:10111000310929303105D8F480930E0199279F9326
:101120008F938BE593E09F938F9384E195E09F935A
:101130008F930E94280F64E175E081ED95E00E9495
:10114000060E0F900F900F900F900F900F9041E1AF
:1011500050E066EC73E08EE395E00E94120F282FBA
:10116000392F232B29F58FE495E00E94F40E9C0182
:101170002150310929303105D8F480930D01992788
:101180009F938F938BE593E09F938F9384E195E0FA
:101190009F938F930E94280F64E175E081ED95E0A5
:1011A0000E94060E0F900F900F900F900F900F90CF
:1011B00041E150E068ED73E08EE395E00E94120F8C
:1011C000282F392F232B11F58FE495E00E94F40E80
:1011D00088319105D8F48093080199279F938F93C4
:1011E0008BE593E09F938F9384E195E09F938F939A
:1011F0000E94280F64E175E081ED95E00E94060EE3
:101200000F900F900F900F900F900F904FE050E0C5
:101210006AEE73E08EE395E00E94120F282F392FBB
:10122000232B11F58DE495E00E94F40E8831910591
:10123000D8F48093070199279F938F938BE593E0D0
:101240009F938F9384E195E09F938F930E94280F43
:1012500064E175E081ED95E00E94060E0F900F901D
:101260000F900F900F900F9041E150E06AEF73E004
:101270008EE395E00E94120F282F392F232B11F5B2
:101280008FE495E00E94F40E82309105D8F48093AB
:10129000060199279F938F938BE593E09F938F93FC
:1012A00084E195E09F938F930E94280F64E175E09D
:1012B00081ED95E00E94060E0F900F900F900F9019
:1012C0000F900F9044E050E06CE074E08EE395E006
:1012D0000E94120F282F392F232B09F054C0F9999F
:1012E000FECF60910B0170910C018AE090E00E94AA
:1012F0004211F999FECF6091090170910A0188E0CD
:1013000090E00E944211F999FECF60910401709122
:10131000050186E090E00E944211F999FECF6091AC
:10132000620585E090E00E943411F999FECF60914A
:101330000E0184E090E00E943411F999FECF609193
:101340000D0183E090E00E943411F999FECF609185
:10135000080182E090E00E943411F999FECF60917B
:10136000070181E090E00E943411F999FECF60916D
:10137000060180E090E00E94341161E174E081EDAB
:1013800095E00E94060E44E050E069E274E08EE3CE
:1013900095E00E94120F282F392F232B21F4109251
:1013A00061051092600544E050E06EE274E08EE367
:1013B00095E00E94120F282F392F232B09F0BDC072
:1013C000809162051F928F9383E394E09F938F93A4
:1013D000C4E1D5E0DF93CF930E94280FBE0181EDD9
:1013E00095E00E94060E80910C018F9380910B0175
:1013F0008F9387E494E09F938F93DF93CF930E9422
:10140000280FBE0181ED95E00E94060E80910A0131
:101410008F93809109018F938EE594E09F938F9332
:10142000DF93CF930E94280FBE0181ED95E00E94CB
:10143000060E809105018F93809104018F9380E7C0
:1014400094E09F938F93DF93CF930E94280FBE0168
:1014500081ED95E00E94060E80910E011F928F9300
:1014600083E894E09F938F93DF93CF930E94280F9C
:10147000BE0181ED95E00E94060E80910D011F9244
:101480008F938CE994E09F938F93DF93CF930E9487
:10149000280F8DB79EB784960FB6F8949EBF0FBEE7
:1014A0008DBFBE0181ED95E00E94060E809108017E
:1014B0001F928F9383EB94E09F938F93DF93CF934F
:1014C0000E94280FBE0181ED95E00E94060E8091DA
:1014D00007011F928F938AEC94E09F938F93DF9381
:1014E000CF930E94280FBE0181ED95E00E94060E69
:1014F000809106011F928F938FED94E09F938F93BD
:10150000DF93CF930E94280FBE0181ED95E00E94EA
:10151000060E66EF74E081ED95E00E94060E65E42C
:1015200073E081ED95E00E94060E8DB79EB742965E
:101530000FB6F8949EBF0FBE8DBF10923D0510925E
:101540003C0510925F0510925E05A895DF91CF9142
:101550001F910F91EF90CF90AF9008950E94C1011D
:101560000E94F20481ED95E00E941B0EF9CF81EDFF
:1015700095E00E94CE0D88E895E00E94C40C089585
:1015800061E588E895E00E94D10C62E088E895E08A
:101590000E94250D61E070E088E895E00E94D80C7B
:1015A00041E061E588E895E00E943C0D88E895E01F
:1015B0000E94B20D807890E0089561E588E895E09A
:1015C0000E94D10C60E088E895E00E94250D60E261
:1015D00088E895E00E94250D60E088E895E00E948B
:1015E000250D60E088E895E00E94250D61E488E81B
:1015F00095E00E94250D67E188E895E00E94250DA1
:1016000068E088E895E00E94250D64E088E895E0B0
:101610000E94250D68E088E895E00E94250D60E1B4
:1016200088E895E00E94250D60E088E895E00E943A
:10163000250D60E088E895E00E94250D60E088E8CF
:1016400095E00E94250D60E088E895E00E94250D58
:1016500060E088E895E00E94250D60E088E895E06C
:101660000E94250D60E088E895E00E94250D60E06D
:1016700088E895E00E94250D60E070E088E895E03C
:101680000E94D80C0895CF93DF93EC010E94C00A0A
:10169000892B19F0CE010E94DD0ADF91CF910895C8
:1016A000AF92CF92EF92FF920F931F93CF93DF935E
:1016B000CDB7DEB727970FB6F894DEBF0FBECDBF0C
:1016C000A982CA82EB820C832D834E836F8361E5EE
:1016D00088E895E00E94D10C60E088E895E00E94DF
:1016E000250D60E288E895E00E94250D60E070E03D
:1016F00088E895E00E94D80C61E588E895E00E94B2
:10170000D10C62E088E895E00E94250D8E010F5F04
:101710001F4F7E0188E0E80EF11CF80161918F01F6
:1017200088E895E00E94250D0E151F05B1F760E0D1
:1017300070E088E895E00E94D80C61E588E895E0C3
:101740000E94D10C60E088E895E00E94250D60E0E1
:1017500088E895E00E94250D60E070E088E895E05B
:101760000E94D80C27960FB6F894DEBF0FBECDBFEF
:10177000DF91CF911F910F91FF90EF90CF90AF909D
:101780000895862F82958F70982F990F890F880F53
:10179000681B862F08958DEC689F812D11248695F6
:1017A00086958695982F990F890F880F860F089533
:1017B000CF92DF92EF92FF920F931F93CF93DF931D
:1017C000CDB7DEB727970FB6F894DEBF0FBECDBFFB
:1017D0008C0161E588E895E00E94D10C62E088E820
:1017E00095E00E94250D61E070E088E895E00E9498
:1017F000D80C47E061E588E895E00E943C0DEE24B6
:10180000E394F12CEC0EFD1E6E0188E0C80ED11C95
:1018100088E895E00E94B20DD7018D937D01AC154B
:10182000BD05B1F759810F2EFFE7EF2EF02DE52210
:10183000F801E082AA814A2F4F7741833B810F2E26
:10184000FFE3FF2EF02DF322F2829C81292F2F73CC
:1018500024838D81877085837E81872F8F71868316
:101860006F816783EE2DF0E06F01D594C794D59416
:10187000C794D594C794D594C794F801C0865F7077
:10188000518750E0559547955595479555954795FE
:10189000559547954287AF70A3874F2D50E05595DA
:1018A000479555954795559547955595479544873F
:1018B0003F7035873381432F50E0559547955595B7
:1018C0004795559547955595479546873F70378776
:1018D00030E035952795359527953595279535959C
:1018E0002795208B9F70918B90E095958795959586
:1018F00087959595879595958795828B7F70738B46
:10190000862F90E0959587959595879595958795E0
:1019100095958795848B6F70658B6F2DC8010E949C
:10192000C10B90E08D30910554F0BC016C507109F1
:10193000C8010E94CB0BD80113968C9302C0F8010A
:10194000F382D80113962C911397822F90E09595EE
:1019500087959595879595958795959587951E96E5
:101960008C931E972F701F962C9327960FB6F89482
:10197000DEBF0FBECDBFDF91CF911F910F91FF90C2
:10198000EF90DF90CF9008950895E9EBF0E080812B
:101990008C7F808388E48093B80085E48093BC00CA
:1019A0000895FC0164A311A210A213A212A208952B
:1019B000EF92FF921F93CF93DF937C0184EA809391
:1019C000BC00ECEBF0E080818823ECF7EBEBF0E07F
:1019D00010829081D70194968C91880F892B8083F7
:1019E00084E88093BC00ECEBF0E080818823ECF786
:1019F000E7018AA19BA118161906BCF4D70120E0C3
:101A000030E08BEB90E0ECEBF0E014E84D91EC0172
:101A10004883108340814423ECF72F5F3F4FE70159
:101A20004AA15BA1241735078CF3672B41F484E9A5
:101A30008093BC00ECEBF0E0808184FDFDCFDF9172
:101A4000CF911F91FF90EF900895FC0180A191A18B
:101A50008032910564F4DF01A80FB91F6C930196E1
:101A600091A380A393A382A320E030E002C02FEFD4
:101A70003FEF822F932F0895BF92CF92DF92EF9284
:101A8000FF920F931F93CF93DF93FC01EB5BFF4F0C
:101A900011821082FC01E95BFF4F1182108224EA5F
:101AA0002093BC00ECEBF0E020812223ECF7EBEB81
:101AB000F0E021E020833081DC0194962C91220F0C
:101AC000232B208324E82093BC00ECEBF0E0208162
:101AD0002223ECF7642F70E0161617068CF520E031
:101AE00030E07B01B1E0EB1AF108ECEBF0E00F2EF7
:101AF000F4ECCF2EF02D0F2EF4E8BF2EF02DDC01EC
:101B0000A95BBF4F0BEB10E0E216F30611F4B082B5
:101B100001C0C08240814423ECF74D915C91119744
:101B2000E801D880EC01C40FD51FDDA24F5F5F4FE5
:101B300011965C934E932F5F3F4F2617370724F380
:101B400084E98093BC00ECEBF0E0808184FDFDCF64
:101B5000DF91CF911F910F91FF90EF90DF90CF9089
:101B6000BF900895FC01EB5BFF4F20813181FC01A8
:101B7000E95BFF4F408151812417350764F4FC0174
:101B8000E20FF31F45A1FC01EB5BFF4F2F5F3F4FBF
:101B90003183208301C040E0842F08950895FC0123
:101BA00011A210A213A212A2539A52981092CD0021
:101BB00087E68093CC00EAECF0E080818F77808329
:101BC00080818F7B808380818F7D808380818F7EE9
:101BD00080838081877F8083A9ECB0E08C918B7FAC
:101BE0008C938081846080838081826080838C91EB
:101BF00080618C938C9188608C930895E8ECF0E080
:101C0000808185FFFDCF6093CE0008950F931F93D1
:101C1000CF93DF938C01EB016881662339F0219625
:101C2000C8010E94FE0D69916111FACFDF91CF9139
:101C30001F910F9108952091C8002223A4F4FC0164
:101C400020A131A14091CE00E20FF31F40832F5F0E
:101C50003F4F2032310524F4FC0131A320A3089525
:101C6000FC0111A210A20895FC0122A133A180A1C0
:101C700091A18217930779F0DF01A20FB31F8C9116
:101C80002F5F3F4F203231051CF433A322A3089568
:101C900013A212A2089580E00895FC0140A151A171
:101CA00022A133A14217530759F0241735071CF41A
:101CB000421B530B07C0421B530B405E5F4F02C0D9
:101CC00040E050E0842F952F089597FB072E16F4DF
:101CD000009407D077FD09D00E94790E07FC05D04B
:101CE0003EF4909581959F4F0895709561957F4F33
:101CF0000895AA1BBB1B51E107C0AA1FBB1FA61753
:101D0000B70710F0A61BB70B881F991F5A95A9F7A4
:101D100080959095BC01CD010895EE0FFF1F0590B1
:101D2000F491E02D09948F929F92AF92BF92CF923F
:101D3000DF92EF92FF92CF93DF93EC01688179817C
:101D40008A819B81611571058105910521F464E209
:101D500079ED8BE597E02DE133EF41E050E00E9413
:101D6000F71149015A019B01AC01A7EAB1E40E94B5
:101D700013126B017C01ACEEB4EFA50194010E943B
:101D80002112C60ED71EE81EF91EF7FE06C081E01E
:101D9000C81AD108E10880E8F80AC882D982EA8224
:101DA000FB82E894D7F8EE24FF24C601DF91CF919F
:101DB000FF90EF90DF90CF90BF90AF909F908F906B
:101DC00008950E94930E089580E091E00E94930E82
:101DD0000895A0E0B0E08093000190930101A093EA
:101DE0000201B09303010895FC0188279927E89424
:101DF00021912032E9F3293010F02E30C8F32B3234
:101E000041F02D3239F4689404C00E94200F820FF3
:101E1000911D219120532A30C0F31EF49095819595
:101E20009F4F0895FB01DC014150504030F08D91EF
:101E30000190801919F40020B9F7881B990B0895B7
:101E40007AE0979F902D879F802D910D1124089502
:101E5000AEE0B0E0EEE2FFE00C9434120D891E8992
:101E600086E08C831A8309838FEF9FE79E838D839F
:101E7000CE014996AC016F89788DCE0101960E9402
:101E80004A0FEF81F885E00FF11F10822E96E4E0F3
:101E90000C945012ACE0B0E0E0E5FFE00C942612A8
:101EA0007C016B018A01FC0117821682838181FF0C
:101EB000C6C188248394912C8C0E9D1EF7019381BA
:101EC000F60193FD859193FF81916F01882309F4B9
:101ED000B2C1853239F493FD859193FF81916F01F1
:101EE000853229F4B70190E00E945D11E7CF512CB3
:101EF000312C20E02032A8F48B3261F028F48032BB
:101F000051F0833271F40BC08D3239F0803349F4D3
:101F1000216028C02260246025C0286023C0206181
:101F200021C027FD27C0382F30533A3078F426FFE0
:101F300006C0FAE05F9E300D1124532E13C08AE0D4
:101F4000389E300D1124332E20620CC08E3221F4C5
:101F500026FD71C1206406C08C3611F4206802C0D1
:101F6000883641F4F60193FD859193FF81916F01CD
:101F70008111C0CF982F9554933018F09052933020
:101F800028F40C5F1F4FFFE3F9830DC0833631F057
:101F9000833771F0833509F05EC023C0F80180817A
:101FA00089830E5F1F4F44244394512C540115C064
:101FB0003801F2E06F0E711CF801A080B18026FF9D
:101FC00003C0652D70E002C06FEF7FEFC5012C8765
:101FD0000E9452112C0183012C856FE7262E2222AC
:101FE00018C03801F2E06F0E711CF801A080B180BA
:101FF00026FF03C0652D70E002C06FEF7FEFC501C3
:102000002C870E9447112C012C8550E8252E222A6E
:10201000830123FC1CC006C0B70180E290E00E944F
:102020005D113A94832D90E048165906A8F30FC02D
:10203000F50127FC859127FE81915F01B70190E0B2
:102040000E945D1131103A94F1E04F1A5108411489
:10205000510471F7EDC0843611F0893641F5F8016D
:1020600027FF07C060817181828193810C5F1F4FC0
:1020700008C060817181882777FD8095982F0E5F59
:102080001F4F4FE6B42EB22297FF09C0909580955E
:10209000709561957F4F8F4F9F4FF0E8BF2A2AE0E0
:1020A00030E0A4010E948911A82EA81843C08537EA
:1020B00031F43FEEB32EB2222AE030E024C099EF93
:1020C000B92EB2228F36B9F020F4883509F0B3C0AA
:1020D0000DC0803721F0883709F0ADC002C020E183
:1020E000B22AB4FE0BC084E0B82A08C024FF09C09D
:1020F000E6E0BE2A06C028E030E005C020E130E07E
:1021000002C020E132E0F801B7FE07C060817181B2
:10211000828193810C5F1F4F06C06081718180E0D6
:1021200090E00E5F1F4FA4010E948911A82EA818ED
:10213000FFE7BF22B6FE0BC02B2D2E7FA51450F457
:10214000B4FE0AC0B2FC08C02B2D2E7E05C07A2C2E
:102150002B2D03C07A2C01C0752C24FF0DC0FE016D
:10216000EA0DF11D8081803311F4297E09C022FF20
:1021700006C07394739404C0822F867809F0739418
:1021800023FD14C020FF0FC05A2C731460F4530CAD
:102190005718732C08C0B70180E290E02C870E948A
:1021A0005D1173942C857314B0F304C0731410F490
:1021B000371801C0312C24FF12C0B70180E390E032
:1021C0002C870E945D112C8522FF1EC021FF03C0B9
:1021D00088E590E002C088E790E0B7010CC0822F4C
:1021E000867891F021FD02C080E201C08BE227FDDC
:1021F0008DE2B70190E00E945D1106C0B70180E357
:1022000090E00E945D115A94A514C0F3AA94F401C1
:10221000EA0DF11DB701808190E00E945D11A110CF
:10222000F5CF06C0B70180E290E00E945D113A94BC
:102230003110F8CF43CEF7012681378102C02FEF4E
:102240003FEFC9012C96E2E10C944212F999FECFBE
:1022500092BD81BDF89A992780B50895A8E1B0E0B4
:1022600042E050E00C94E911262FF999FECF1FBAF5
:1022700092BD81BD20BD0FB6F894FA9AF99A0FBEAF
:10228000019608950E943411272F0C943511FC01FA
:102290000590615070400110D8F7809590958E0F91
:1022A0009F1F0895FC016150704001900110D8F704
:1022B000809590958E0F9F1F08950F931F93CF9336
:1022C000DF938C01EB018B8181FD03C00FEF1FEFCA
:1022D0001AC082FF0DC02E813F818C819D812817FD
:1022E000390764F4E881F9810193F983E88306C032
:1022F000E885F985802F0995892B41F78E819F818B
:1023000001969F838E83C801DF91CF911F910F911A
:102310000895FA01AA27283051F1203181F1E8947B
:102320006F936E7F6E5F7F4F8F4F9F4FAF4FB1E0C8
:102330003ED0B4E03CD0670F781F891F9A1FA11DC3
:10234000680F791F8A1F911DA11D6A0F711D811DC4
:10235000911DA11D20D009F468943F912AE0269F89
:1023600011243019305D3193DEF6CF010895462FE8
:102370004770405D4193B3E00FD0C9F7F6CF462FC9
:102380004F70405D4A3318F0495D31FD4052419332
:1023900002D0A9F7EACFB4E0A695979587957795EF
:1023A0006795BA95C9F700976105710508959B0176
:1023B000AC010A2E06945795479537952795BA95FF
:1023C000C9F7620F731F841F951FA01D0895DC01BC
:1023D000CB01FC01F999FECF06C0F2BDE1BDF89A30
:1023E000319600B40D9241505040B8F70895052E33
:1023F00097FB16F4009407D057FD0DD00E945D1294
:1024000007FC09D07EF490958095709561957F4F7B
:102410008F4F9F4F089550954095309521953F4F90
:102420004F4F5F4F08950E947F12A59F900DB49F5C
:10243000900DA49F800D911D11240895B7FF0C9459
:1024400013120E941312821B930B08952F923F9236
:102450004F925F926F927F928F929F92AF92BF92B4
:10246000CF92DF92EF92FF920F931F93CF93DF9360
:10247000CDB7DEB7CA1BDB0B0FB6F894DEBF0FBEBD
:10248000CDBF09942A88398848885F846E847D840A
:102490008C849B84AA84B984C884DF80EE80FD800C
:1024A0000C811B81AA81B981CE0FD11D0FB6F89482
:1024B000DEBF0FBECDBFED010895A1E21A2EAA1B0B
:1024C000BB1BFD010DC0AA1FBB1FEE1FFF1FA217E4
:1024D000B307E407F50720F0A21BB30BE40BF50BE1
:1024E000661F771F881F991F1A9469F7609570956A
:1024F000809590959B01AC01BD01CF010895A29FED
:10250000B001B39FC001A39F01D0B29F700D811D88
:0A2510001124911D0895F894FFCFE7
:10251A00010000001E000116070A00580203090FF5
:10252A000F0F0F0F0F0F0F00010203040506070814
:10253A00090001020304050690B6080087B60800E0
:10254A0023FC0700C7F806004C3F06004391000031
:10255A00573F0600D2F806002BFC0700A6B6080073
:10256A00F51A0500BA3F1100783D1100DD3E110051
:10257A00E43E1100FE3E110022E72700E0FE2D0096
:10258A00FDF8420001010000000000002530376C10
:10259A00640068656C70007365742074696D6520E9
:1025AA0059594D4D44442068686D6D73730D0A0086
:1025BA007365742074696D65666F726D6174205BF2
:1025CA0030206F7220315D0D0A00736574206461DA
:1025DA007465696E74657276616C20393939393976
:1025EA000D0A00736574206461746573656320392C
:1025FA00393939390D0A007365742075646174615B
:10260A007365632039393939390D0A0073657420C5
:10261A006272696768742064617974696D65205BA8
:10262A003120746F20395D0D0A007365742062725F
:10263A0069676874206E69676874205B3120746FFB
:10264A0020395D0D0A0073657420686F7572206405
:10265A00617974696D65205B3020746F2032335D57
:10266A000D0A0073657420686F7572206E69676859
:10267A0074205B3020746F2032335D0D0A0073655D
:10268A00742031322F323420666F726D6174205B90
:10269A0030206F7220315D0D0A00636174686F64C7
:1026AA00202D3E20436174686F6420706F69736FD8
:1026BA006E696E670D0A0073656B616920202D3E95
:1026CA0020535445494E533B47415445206C696B4E
:1026DA0065206566666563740D0A00736176652018
:1026EA0020202D3E20777269746520454550524F4F
:1026FA004D0D0A0073686F772020202D3E207368E5
:10270A006F7720616C6C2073657474696E670D0A4B
:10271A000074696D652020202D3E206368616E6714
:10272A006520746F20636C6F636B206D6F64650D39
:10273A000A0039393939393A206E756D657269631B
:10274A00206E756D626572203020746F20363535C3
:10275A0033350D0A002D2D2D0D0A00736574207472
:10276A00696D65666F726D6174200076616C75655E
:10277A00203D2025640D0A007365742074696D6517
:10278A0020007365742064617465696E746572767D
:10279A00616C2000736574206461746573656320DD
:1027AA0000736574207564617461736563200063E6
:1027BA006174686F6400446F6E652E0073656B61A7
:1027CA00690073657420627269676874206461794C
:1027DA0074696D6520007365742062726967687434
:1027EA00206E69676874200073657420686F75725B
:1027FA002064617974696D65200073657420686F5F
:10280A007572206E696768742000736574203132AE
:10281A002F323420666F726D6174200073617665A1
:10282A0000454550524F4D20777269746520636F99
:10283A006D706C6574650D0A0074696D6500736866
:10284A006F77007365742074696D65666F726D6168
:10285A00742025640D0A00736574206461746569C7
:10286A006E74657276616C3A2025640D0A00736590
:10287A007420646174657365633A2025640D0A00E7
:10288A007365742075646174617365633A202564A5
:10289A000D0A007365742062726967687420646146
:1028AA007974696D653A2025640D0A007365742090
:1028BA00627269676874206E696768743A20256471
:1028CA000D0A0073657420686F75722064617974EB
:1028DA00696D653A2025640D0A0073657420686F76
:1028EA007572206E696768743A2025640D0A007350
:1028FA0065742031322F323420666F726D61743AFA
:10290A002025640D0A0052656C65617365203230BA
:10291A0031332F31312F30332056657220312E302A
:04292A000D0A000092
:00000001FF
