:100000000C9457000C947F000C947F000C947F009C
:100010000C947F000C947F000C947F000C947F0064
:100020000C947F000C947F000C947F000C947F0054
:100030000C947F000C947F000C947F000C947F0044
:100040000C947F000C947F000C947F000C947F0034
:100050000C947F000C9481000C947F000C947F0022
:100060000C947F000C947F000C947F000C947F0014
:100070000C947F000C947F000C947F000C947F0004
:100080000C947F000C947F000C947F000C947F00F4
:100090000C947F000C947F000C947F000C947F00E4
:1000A0000C947F000C947F000C947F00B10A112403
:1000B0001FBECFEFDAE0DEBFCDBF14E0A0E0B1E0BD
:1000C000EEE0F5E202C005900D92A63FB107D9F728
:1000D00025E0A6EFB4E001C01D92A73DB207E1F70D
:1000E00010E0CEEAD0E004C02297FE010E94890E03
:1000F000CC3AD107C9F70E94A80A0C9485120C9437
:1001000000001F920F920FB60F9211242F933F936E
:100110004F935F936F937F938F939F93AF93BF930F
:10012000EF93FF9385B18F7085B945B180914705F5
:1001300090E0FC01E15FFE4F208150E1259F90019E
:100140001124242B25B9FC01E85BFA4F8081882318
:1001500011F0769A01C07698289881E090E000909E
:10016000470502C0880F991F0A94E2F78EBD0DB4AF
:1001700007FEFDCF289A9091070180910801891709
:10018000D0F46091560584E595E00E94BB0B9091F8
:100190000801891750F06091560584E595E00E94AA
:1001A000BB0B90910701891718F080910D011CC0BD
:1001B00080910E0119C06091560584E595E00E947A
:1001C000BB0B90910701891768F06091560584E593
:1001D00095E00E94BB0B90910801891718F480915B
:1001E0000D0102C080910E01853059F168F4823012
:1001F00099F020F4813009F047C04CC0833099F069
:10020000843009F041C016C0873049F108F18830C8
:1002100069F18930C9F531C0EFE8F1E03197F1F7C4
:1002200000C0000037C0EFE1F3E03197F1F700C004
:10023000000030C0EFEAF4E03197F1F700C00000B1
:1002400029C0EFE3F6E03197F1F700C0000022C0CB
:10025000EFECF7E03197F1F700C000001BC0EFE5CD
:10026000F9E03197F1F700C0000014C0EFEEFAE0BA
:100270003197F1F700C000000DC0EFE7FCE03197C7
:10028000F1F700C0000006C0EFE7FCE03197F1F79E
:1002900000C0000028981EBC0DB407FEFDCF289AB0
:1002A000853079F160F48230B9F020F4813009F0C2
:1002B00043C00BC08330B9F08430F1F51BC08730E8
:1002C00071F130F18830C1F531C08FE79CE00197C2
:1002D000F1F700C0000030C0EFEEFAE03197F1F71F
:1002E00000C0000029C08FE599E00197F1F700C038
:1002F000000022C0EFECF7E03197F1F700C00000FA
:100300001BC08FE396E00197F1F700C0000014C016
:10031000EFEAF4E03197F1F700C000000DC08FE183
:1003200093E00197F1F700C0000006C0EFE8F1E0AC
:100330003197F1F700C00000809147058F5F88304A
:1003400018F48093470502C010924705809150052C
:100350009091510501969093510580935005A99A6B
:10036000FF91EF91BF91AF919F918F917F916F918D
:100370005F914F913F912F910F900FBE0F901F9063
:10038000189514BE88E10FB6F8948093600010921F
:1003900060000FBE219A229A8CB580618CBD8CB50D
:1003A0008D7F8CBD8CB58E7F8CBD8DB58E7F8DBDC8
:1003B0008CB5877F8CBD8CB58B7F8CBD8CB58F7DCC
:1003C0008CBD8CB580648CBD3F9A1BB883EB95E0E7
:1003D0000E94C90D8AE695E00E94BF0C84E690E079
:1003E000EFE3FCE93197F1F700C000000197C1F796
:1003F00084E595E00E943D0B209A2898249A259A3E
:10040000269A279A6E9AF999FECF8AE090E00E9488
:10041000281190930C0180930B01F999FECF88E08D
:1004200090E00E94281190930A0180930901F999A4
:10043000FECF86E090E00E94281190930501809302
:100440000401F999FECF85E090E00E94201180938D
:100450004405F999FECF84E090E00E94201180933A
:100460000E01F999FECF83E090E00E942011809365
:100470000D01F999FECF82E090E00E942011809357
:100480000801F999FECF81E090E00E94201180934D
:100490000701F999FECF80E090E00E94201180933F
:1004A0000601EEE6F0E080818B7F808380818D7F86
:1004B000808380818E7F808385B5877F85BD84B56D
:1004C000826084BD84B58E7F84BD85B58B7F85BDFC
:1004D00085B5826085BD85B5816085BD16BC89EF17
:1004E00087BDA99A8081826080832EE088E190E0B8
:1004F0000FB6F894A895809360000FBE209360001B
:10050000789408952F923F924F925F926F927F92CC
:100510008F929F92AF92BF92CF92DF92EF92FF9213
:100520000F931F93CF93DF93CDB7DEB765970FB6C9
:10053000F894DEBF0FBECDBF81E1E7E1F1E0DE015F
:10054000119601900D928A95E1F7809104019091A6
:100550000501909343058093420581E0809348050F
:100560008093490580934A0580934B0580934C0501
:1005700080934D0580934E0580934F0585E090E074
:100580009B8B8A8B0F2EFFE0AF2EF1E0BF2EF02D5C
:100590000F2EF0E18F2EF1E09F2EF02D0F2EF1E1C6
:1005A0006F2EF1E07F2EF02D0F2EF2E14F2EF1E0B5
:1005B0005F2EF02D44C0F80131908F01F50130829B
:1005C0000196F70131907F01F4013082F6013190FC
:1005D0006F01F3013082FB013190BF01F2013082E3
:1005E000EC89FD893190FD8BEC8BE3E1F1E0308209
:1005F000F90131909F01E4E1F1E030823D90E5E1C5
:10060000F1E03082FA013190AF01E6E1F1E03082B1
:10061000EFE3FCE93197F1F700C00000EFE3FCE9FC
:100620003197F1F700C00000A8958A30910519F6BE
:100630008A899B8901979B8B8A8B892B19F18E0163
:100640000F5F1F4F6894EE24E1F8F12CEC0EFD1EB5
:100650000F2EF3E0CF2ED12CF02DCC0EDD1EBE01DF
:100660006C5F7F4FAE014B5F5F4F9E012A5F3F4F34
:10067000DE011796FE01389680E090E05D8B4C8B92
:10068000AF0199CFEFE0F1E0A8E4B5E087E191E0B8
:1006900011921D92E817F907D9F7109243051092AD
:1006A000420565960FB6F894DEBF0FBECDBFDF9151
:1006B000CF911F910F91FF90EF90DF90CF90BF905F
:1006C000AF909F908F907F906F905F904F903F90F2
:1006D0002F9008952F923F924F925F926F927F9248
:1006E0008F929F92AF92BF92CF92DF92EF92FF9242
:1006F0000F931F93CF93DF93CDB7DEB7C456D109C5
:100700000FB6F894DEBF0FBECDBF8CE4E8E2F1E097
:10071000DE01119601900D928A95E1F788E0E4E7F9
:10072000F1E0DE01A95ABF4F01900D928A95E1F7E1
:100730001092480509E415E0F801108210924A056C
:1007400010924B0510924C0510924D0510924E05DB
:1007500010924F05809104019091050190934305FB
:10076000809342050E94DE0E64E170E00E945F0EFD
:10077000FC01EE0FFF1FEE0FFF1F81E090E08C0FDA
:100780009D1FE80FF91F83818F9382818F93818151
:100790008F9380818F938CE791E09F938F93CE010D
:1007A000835B9F4F9F938F930E94220F8FE08093D4
:1007B000100181E0F80180830E94DE0E60E971E0A3
:1007C0000E945F0E3C010FB6F894DEBF0FBECDBF96
:1007D00016141704E4F03AC00E94DE0EB6010E941F
:1007E0005F0EF80181938F01F70130820A151B0516
:1007F00099F78FE99FE00197F1F700C00000A895F5
:100800009FEF891A990A86149704F1F41FC0812C6E
:10081000912C0F2EFFE04F2EF1E05F2EF02D0F2ECA
:10082000F7E1AF2EF1E0BF2EF02D0F2EFAE0CF2E24
:10083000D12CF02D0F2EF0E1EF2EF1E0FF2EF02D58
:100840000F2EFFE03F2EF02D8201C6CF2E968FADEA
:100850002E97805380930F010F2EF7E5CF2ED12CCA
:10086000F02DCC0EDD1EE8E0CE0ED11CA4961FAEFE
:10087000A497A5961FAEA5970F2EFAE02F2E312C28
:10088000F02D0F2EF7E54F2E512CF02D4C0E5D1E46
:1008900082E090E0480E591E0F2EF1E16F2EF1E03C
:1008A0007F2EF02D0E94DE0E66E070E00E945F0E4B
:1008B000A3969FAF8EAFA3970296A1969FAF8EAFE0
:1008C000A197E7E5F0E0EC0FFD1FE80FF91F80812D
:1008D000813041F30E94DE0E68EC70E00E945F0EF2
:1008E0004C01181619060CF125C00E94DE0EF80105
:1008F00021918F01211105C0B1010E945F0EF70106
:100900008083FFEFEF1AFF0A0C151D0571F78FE9C1
:100910009FE00197F1F700C00000A8959FEFA91A8A
:10092000B90AA814B90419F405C0A12CB12C82018C
:100930007301DBCFA196EEADFFADA197E15FFE4F56
:10094000ADE4B0E0AC0FBD1FA3968EAD9FADA397F5
:10095000A80FB91F11968C9180538083E7E5F0E0D2
:10096000EC0FFD1FA1968EAD9FADA197E80FF91F6B
:1009700081E08083FE01E95AFF4F81E090E0A49678
:100980003FADA497A5964FADA5972191211102C027
:10099000832F942FEC15FD05C1F7892B09F482CF25
:1009A0008091040190910501909343058093420545
:1009B000CC59DF4F0FB6F894DEBF0FBECDBFDF912D
:1009C000CF911F910F91FF90EF90DF90CF90BF904C
:1009D000AF909F908F907F906F905F904F903F90DF
:1009E0002F900895AF92CF92EF920F931F93CF93D2
:1009F000DF938091500590915105883E934008F413
:100A000040C18091420590914305009709F0CDC007
:100A100084E595E00E94D20B8091450590914605B2
:100A200020910B0130910C012817390708F474C08C
:100A3000109248051092490510924A0510924B05F4
:100A400010924C0510924D0510924E0510924F05D4
:100A50008091440581112BC08FE080930F0180911C
:100A60000601813049F480916005809310018091E6
:100A700061058093110108C0809162058093100187
:100A8000809163058093110180915E05809312012E
:100A900080915F058093130180915C058093140120
:100AA00080915D05809315018FE080931601809100
:100AB0004405813009F06AC080910601813049F413
:100AC0008091600580930F018091610580931001F2
:100AD00008C08091620580930F0180916305809327
:100AE00010018FE08093110190915E0590931201A7
:100AF00090915F05909313018093140180915C05A0
:100B00008093150180915D058093160181E08093AB
:100B10004A0580934D053AC0109248051092490548
:100B200010924A0510924B0510924C0510924D05FB
:100B300010924E0510924F0542E040930F01109223
:100B4000100140916805409311014091690540935F
:100B5000120140916605409313014091670540934F
:100B6000140140916405409315014091650540933F
:100B700016014091090150910A01240F351F821777
:100B8000930720F010924605109245058091450587
:100B90009091460501969093460580934505809176
:100BA000420590914305009729F0019790934305E2
:100BB000809342058091520590915305892B41F411
:100BC00081E090E09093530580935205479A05C0C9
:100BD00010925305109252054798109251051092A9
:100BE00050054FC083EB95E00E942E0EE0911E054C
:100BF000F0911F05E05EFA4F8083682F83EB95E04C
:100C00000E94F80DE0911E05F0911F05E05EFA4F7D
:100C100080818D3081F46AE083EB95E00E94F80DCD
:100C2000E0911E05F0911F05E05EFA4F10821093CF
:100C300041050093400580911E0590911F05019686
:100C4000803291052CF490931F0580931E0504C0FB
:100C5000D0931F05C0931E058091400590914105DA
:100C6000019799F480911E0590911F05019769F4F1
:100C700010921F0510921E0510924105109240051A
:100C800004C001E010E0CFE1D0E083EB95E00E94EA
:100C9000470E892B09F0A6CF809140059091410520
:100CA000019709F04CC460911E0570911F058B01DE
:100CB0000150110910161106CCF4E0E2F5E0CB0169
:100CC000815E9A4F21E030E040E050E0A191A032F7
:100CD00031F0AE3221F0A053AA3008F09A01E817A3
:100CE000F907A1F72130310509F05FC0AFE0B1E0AD
:100CF000C8E4D5E087E191E02FE02D931992A81781
:100D0000B907D9F711230CF447C0FB01E05EFA4F95
:100D100020E235E0DF0187E090E06FE04E91542F54
:100D200050535A3040F499237CF0EC01C15FDE4F00
:100D30005883019709C0403239F499232CF0EC0113
:100D4000C15FDE4F68830197A217B30739F740E010
:100D500050E088E090E061E070E011E0A0E0B0E0F9
:100D6000C291DC2FD053DA3010F0C03231F41816B3
:100D7000190674F40197AB010CC0CE3251F4413026
:100D8000510539F4EC01C85BDA4F1883AD0101C09D
:100D9000AB012E173F0721F78091040190910501C7
:100DA0009093430580934205C2C3232B09F0BFC330
:100DB00044E050E062E871E080E295E00E940C0FB0
:100DC000282F392F232B09F06CC067E871E083EBE3
:100DD00095E00E94000E60EA71E083EB95E00E94CE
:100DE000000E6AEB71E083EB95E00E94000E63ED6C
:100DF00071E083EB95E00E94000E67EE71E083EBFB
:100E000095E00E94000E6CEF71E083EB95E00E948C
:100E1000000E6AE172E083EB95E00E94000E66E34B
:100E200072E083EB95E00E94000E63E572E083EBD5
:100E300095E00E94000E6EE672E083EB95E00E9462
:100E4000000E6AE872E083EB95E00E94000E67EA0C
:100E500072E083EB95E00E94000E6BEC72E083EB96
:100E600095E00E94000E64EE72E083EB95E00E9434
:100E7000000E61E073E083EB95E00E94000E68E4F1
:100E800073E083EB95E00E94000E62E273E083EB77
:100E900095E00E94000E65E473E083EB95E00E940C
:100EA000000E4FE050E06BE473E080E295E00E94BA
:100EB0000C0F282F392F232B11F58FE295E00E947C
:100EC000EE0E82309105D8F48093440599279F93C4
:100ED0008F938BE593E09F938F9386EF94E09F939E
:100EE0008F930E94220F66EF74E083EB95E00E94DF
:100EF000000E0F900F900F900F900F900F9049E001
:100F000050E068E673E080E295E00E940C0F282F25
:100F1000392F232B09F044C08091340520E1829FB2
:100F2000C0011124909135059F70A92EA82A8091A7
:100F3000320520E1829FC0011124909133059F70FA
:100F4000C92EC82A8091300520E1829FC00111245A
:100F5000909131059F70E92EE82A80912D0520E1BE
:100F6000829FC001112400912E050F70082B8091E3
:100F70002B0520E1829FC001112440912C054F7068
:100F8000482B8091290520E1829FC00111246091A6
:100F90002A056F70682B21E084E595E00E944A0BDA
:100FA00041E150E062E773E080E295E00E940C0FBF
:100FB000282F392F232B01F581E395E00E94EE0EB7
:100FC00080930B0190930C019F938F938BE593E09B
:100FD0009F938F9386EF94E09F938F930E94220FAD
:100FE00066EF74E083EB95E00E94000E0F900F9087
:100FF0000F900F900F900F904CE050E064E873E07A
:1010000080E295E00E940C0F282F392F232B01F549
:101010008CE295E00E94EE0E8093090190930A0104
:101020009F938F938BE593E09F938F9386EF94E04C
:101030009F938F930E94220F66EF74E083EB95E0FD
:101040000E94000E0F900F900F900F900F900F9036
:101050004DE050E061E973E080E295E00E940C0F02
:10106000282F392F232B01F58DE295E00E94EE0EFB
:1010700080930401909305019F938F938BE593E0F8
:101080009F938F9386EF94E09F938F930E94220FFC
:1010900066EF74E083EB95E00E94000E0F900F90D6
:1010A0000F900F900F900F9046E050E06FE973E0C3
:1010B00080E295E00E940C0F282F392F232B41F45A
:1010C0000E94820266EA73E083EB95E00E94000EC4
:1010D00045E050E06CEA73E080E295E00E940C0F7E
:1010E000282F392F232B11F40E946A0343E150E08B
:1010F00062EB73E080E295E00E940C0F282F392FFD
:10110000232B29F583E395E00E94EE0E9C012150EC
:10111000310929303105D8F480930E0199279F9326
:101120008F938BE593E09F938F9386EF94E09F934B
:101130008F930E94220F66EF74E083EB95E00E948C
:10114000000E0F900F900F900F900F900F9041E1B5
:1011500050E066EC73E080E295E00E940C0F282FCF
:10116000392F232B29F581E395E00E94EE0E9C0197
:101170002150310929303105D8F480930D01992788
:101180009F938F938BE593E09F938F9386EF94E0EB
:101190009F938F930E94220F66EF74E083EB95E09C
:1011A0000E94000E0F900F900F900F900F900F90D5
:1011B00041E150E068ED73E080E295E00E940C0FA1
:1011C000282F392F232B11F581E395E00E94EE0E95
:1011D00088319105D8F48093080199279F938F93C4
:1011E0008BE593E09F938F9386EF94E09F938F938B
:1011F0000E94220F66EF74E083EB95E00E94000EE0
:101200000F900F900F900F900F900F904FE050E0C5
:101210006AEE73E080E295E00E940C0F282F392FD0
:10122000232B11F58FE295E00E94EE0E8831910597
:10123000D8F48093070199279F938F938BE593E0D0
:101240009F938F9386EF94E09F938F930E94220F3A
:1012500066EF74E083EB95E00E94000E0F900F9014
:101260000F900F900F900F9041E150E06AEF73E004
:1012700080E295E00E940C0F282F392F232B11F5C7
:1012800081E395E00E94EE0E82309105D8F48093C0
:10129000060199279F938F938BE593E09F938F93FC
:1012A00086EF94E09F938F930E94220F66EF74E085
:1012B00083EB95E00E94000E0F900F900F900F901F
:1012C0000F900F9044E050E06CE074E080E295E015
:1012D0000E940C0F282F392F232B09F054C0F999A5
:1012E000FECF60910B0170910C018AE090E00E94AA
:1012F0003C11F999FECF6091090170910A0188E0D3
:1013000090E00E943C11F999FECF60910401709128
:10131000050186E090E00E943C11F999FECF6091B2
:10132000440585E090E00E942E11F999FECF60916E
:101330000E0184E090E00E942E11F999FECF609199
:101340000D0183E090E00E942E11F999FECF60918B
:10135000080182E090E00E942E11F999FECF609181
:10136000070181E090E00E942E11F999FECF609173
:10137000060180E090E00E942E1161E174E083EBB1
:1013800095E00E94000E44E050E069E274E080E2E3
:1013900095E00E940C0F282F392F232B21F4109257
:1013A00043051092420544E050E06EE274E080E2B2
:1013B00095E00E940C0F282F392F232B09F0B7C07E
:1013C000809144051F928F9383E394E09F938F93C2
:1013D000C6EFD4E0DF93CF930E94220FBE0183EBD0
:1013E00095E00E94000E80910C018F9380910B017B
:1013F0008F9387E494E09F938F93DF93CF930E9422
:10140000220FBE0183EB95E00E94000E80910A013D
:101410008F93809109018F938EE594E09F938F9332
:10142000DF93CF930E94220FBE0183EB95E00E94D1
:10143000000E809105018F93809104018F9380E7C6
:1014400094E09F938F93DF93CF930E94220FBE016E
:1014500083EB95E00E94000E80910E011F928F9306
:1014600083E894E09F938F93DF93CF930E94220FA2
:10147000BE0183EB95E00E94000E80910D011F924A
:101480008F938CE994E09F938F93DF93CF930E9487
:10149000220F8DB79EB784960FB6F8949EBF0FBEED
:1014A0008DBFBE0183EB95E00E94000E8091080184
:1014B0001F928F9383EB94E09F938F93DF93CF934F
:1014C0000E94220FBE0183EB95E00E94000E8091E6
:1014D00007011F928F938AEC94E09F938F93DF9381
:1014E000CF930E94220FBE0183EB95E00E94000E75
:1014F000809106011F928F938FED94E09F938F93BD
:10150000DF93CF930E94220FBE0183EB95E00E94F0
:10151000000E65E473E083EB95E00E94000E8DB74A
:101520009EB742960FB6F8949EBF0FBE8DBF109225
:101530001F0510921E051092410510924005A895B6
:10154000DF91CF911F910F91EF90CF90AF900895C1
:101550000E94C1010E94F20483EB95E00E94150EE7
:10156000F9CF83EB95E00E94C80D8AE695E00E94D2
:10157000BE0C089561E58AE695E00E94CB0C62E01E
:101580008AE695E00E941F0D61E070E08AE695E032
:101590000E94D20C41E061E58AE695E00E94360D9A
:1015A0008AE695E00E94AC0D807890E0089561E5B0
:1015B0008AE695E00E94CB0C60E08AE695E00E9406
:1015C0001F0D60E28AE695E00E941F0D60E08AE64A
:1015D00095E00E941F0D60E08AE695E00E941F0DD5
:1015E00061E48AE695E00E941F0D67E18AE695E0D6
:1015F0000E941F0D68E08AE695E00E941F0D64E0DE
:101600008AE695E00E941F0D68E08AE695E00E9458
:101610001F0D60E18AE695E00E941F0D60E08AE6FA
:1016200095E00E941F0D60E08AE695E00E941F0D84
:1016300060E08AE695E00E941F0D60E08AE695E092
:101640000E941F0D60E08AE695E00E941F0D60E099
:101650008AE695E00E941F0D60E08AE695E00E9410
:101660001F0D60E08AE695E00E941F0D60E070E0CB
:101670008AE695E00E94D20C0895CF93DF93EC01A7
:101680000E94BA0A892B19F0CE010E94D70ADF9175
:10169000CF910895AF92CF92EF92FF920F931F9345
:1016A000CF93DF93CDB7DEB727970FB6F894DEBFA1
:1016B0000FBECDBFA982CA82EB820C832D834E83DD
:1016C0006F8361E58AE695E00E94CB0C60E08AE6D4
:1016D00095E00E941F0D60E28AE695E00E941F0DD2
:1016E00060E070E08AE695E00E94D20C61E58AE64F
:1016F00095E00E94CB0C62E08AE695E00E941F0D07
:101700008E010F5F1F4F7E0188E0E80EF11CF8018B
:1017100061918F018AE695E00E941F0D0E151F054D
:10172000B1F760E070E08AE695E00E94D20C61E5D6
:101730008AE695E00E94CB0C60E08AE695E00E9484
:101740001F0D60E08AE695E00E941F0D60E070E0EA
:101750008AE695E00E94D20C27960FB6F894DEBF79
:101760000FBECDBFDF91CF911F910F91FF90EF90F2
:10177000CF90AF900895862F82958F70982F990FF4
:10178000890F880F681B862F08958DEC689F812D27
:101790001124869586958695982F990F890F880F25
:1017A000860F0895CF92DF92EF92FF920F931F93CF
:1017B000CF93DF93CDB7DEB727970FB6F894DEBF90
:1017C0000FBECDBF8C0161E58AE695E00E94CB0C8F
:1017D00062E08AE695E00E941F0D61E070E08AE613
:1017E00095E00E94D20C47E061E58AE695E00E9410
:1017F000360DEE24E394F12CEC0EFD1E6E0188E014
:10180000C80ED11C8AE695E00E94AC0DD7018D93DD
:101810007D01AC15BD05B1F759810F2EFFE7EF2E05
:10182000F02DE522F801E082AA814A2F4F7741830B
:101830003B810F2EFFE3FF2EF02DF322F2829C81DD
:10184000292F2F7324838D81877085837E81872F35
:101850008F7186836F816783EE2DF0E06F01D594E1
:10186000C794D594C794D594C794D594C794F801D8
:10187000C0865F70518750E05595479555954795BF
:1018800055954795559547954287AF70A3874F2D3E
:1018900050E05595479555954795559547955595DC
:1018A000479544873F7035873381432F50E05595E6
:1018B000479555954795559547955595479546872D
:1018C0003F70378730E035952795359527953595C5
:1018D000279535952795208B9F70918B90E0959556
:1018E0008795959587959595879595958795828BFD
:1018F0007F70738B862F90E095958795959587954A
:101900009595879595958795848B6F70658B6F2DD1
:10191000C8010E94BB0B90E08C30910554F0BC01D3
:101920006C507109C8010E94C50BD80113968C93A5
:1019300002C0F801F382D80113962C911397822FDD
:1019400090E095958795959587959595879595952B
:1019500087951E968C931E972F701F962C93279613
:101960000FB6F894DEBF0FBECDBFDF91CF911F91B0
:101970000F91FF90EF90DF90CF9008950895E9EBDD
:10198000F0E080818C7F808388E48093B80085E4D8
:101990008093BC000895FC0164A311A210A213A2BD
:1019A00012A20895EF92FF921F93CF93DF937C01D1
:1019B00084EA8093BC00ECEBF0E080818823ECF7B4
:1019C000EBEBF0E010829081D70194968C91880F18
:1019D000892B808384E88093BC00ECEBF0E080816D
:1019E0008823ECF7E7018AA19BA118161906BCF41D
:1019F000D70120E030E08BEB90E0ECEBF0E014E876
:101A00004D91EC014883108340814423ECF72F5F14
:101A10003F4FE7014AA15BA1241735078CF3672BE1
:101A200041F484E98093BC00ECEBF0E0808184FD1C
:101A3000FDCFDF91CF911F91FF90EF900895FC01B2
:101A400080A191A18032910564F4DF01A80FB91F34
:101A50006C93019691A380A393A382A320E030E02E
:101A600002C02FEF3FEF822F932F0895BF92CF92A6
:101A7000DF92EF92FF920F931F93CF93DF93FC01BE
:101A8000EB5BFF4F11821082FC01E95BFF4F11827B
:101A9000108224EA2093BC00ECEBF0E020812223AA
:101AA000ECF7EBEBF0E021E020833081DC01949651
:101AB0002C91220F232B208324E82093BC00ECEBF5
:101AC000F0E020812223ECF7642F70E01616170651
:101AD0008CF520E030E07B01B1E0EB1AF108ECEB93
:101AE000F0E00F2EF4ECCF2EF02D0F2EF4E8BF2EE9
:101AF000F02DDC01A95BBF4F0BEB10E0E216F30603
:101B000011F4B08201C0C08240814423ECF74D91B2
:101B10005C911197E801D880EC01C40FD51FDDA2BC
:101B20004F5F5F4F11965C934E932F5F3F4F261789
:101B3000370724F384E98093BC00ECEBF0E080816C
:101B400084FDFDCFDF91CF911F910F91FF90EF901A
:101B5000DF90CF90BF900895FC01EB5BFF4F208199
:101B60003181FC01E95BFF4F40815181241735072A
:101B700064F4FC01E20FF31F45A1FC01EB5BFF4F96
:101B80002F5F3F4F3183208301C040E0842F0895B1
:101B90000895FC0111A210A213A212A2539A529806
:101BA0001092CD0087E68093CC00EAECF0E08081D3
:101BB0008F77808380818F7B808380818F7D8083FE
:101BC00080818F7E80838081877F8083A9ECB0E0D5
:101BD0008C918B7F8C9380818460808380818260F4
:101BE00080838C9180618C938C9188608C93089514
:101BF000E8ECF0E0808185FFFDCF6093CE00089592
:101C00000F931F93CF93DF938C01EB0168816623C1
:101C100039F02196C8010E94F80D69916111FACF3F
:101C2000DF91CF911F910F9108952091C800222339
:101C3000A4F4FC0120A131A14091CE00E20FF31FDA
:101C400040832F5F3F4F2032310524F4FC0131A344
:101C500020A30895FC0111A210A20895FC0122A165
:101C600033A180A191A18217930779F0DF01A20F20
:101C7000B31F8C912F5F3F4F203231051CF433A3EB
:101C800022A3089513A212A2089580E00895FC01F2
:101C900040A151A122A133A14217530759F02417A3
:101CA00035071CF4421B530B07C0421B530B405E0D
:101CB0005F4F02C040E050E0842F952F089597FBBE
:101CC000072E16F4009407D077FD09D00E94730EFA
:101CD00007FC05D03EF4909581959F4F089570952F
:101CE00061957F4F0895AA1BBB1B51E107C0AA1F36
:101CF000BB1FA617B70710F0A61BB70B881F991FAD
:101D00005A95A9F780959095BC01CD010895EE0FE5
:101D1000FF1F0590F491E02D09948F929F92AF924E
:101D2000BF92CF92DF92EF92FF92CF93DF93EC01BD
:101D3000688179818A819B81611571058105910591
:101D400021F464E279ED8BE597E02DE133EF41E09A
:101D500050E00E94F11149015A019B01AC01A7EA30
:101D6000B1E40E940D126B017C01ACEEB4EFA50151
:101D700094010E941B12C60ED71EE81EF91EF7FE24
:101D800006C081E0C81AD108E10880E8F80AC882D4
:101D9000D982EA82FB82E894D7F8EE24FF24C601B8
:101DA000DF91CF91FF90EF90DF90CF90BF90AF90F9
:101DB0009F908F9008950E948D0E089580E091E08D
:101DC0000E948D0E0895A0E0B0E0809300019093F2
:101DD0000101A0930201B09303010895FC0188273B
:101DE0009927E89421912032E9F3293010F02E3020
:101DF000C8F32B3241F02D3239F4689404C00E94AC
:101E00001A0F820F911D219120532A30C0F31EF426
:101E1000909581959F4F0895FB01DC014150504002
:101E200030F08D910190801919F40020B9F7881BCA
:101E3000990B08957AE0979F902D879F802D910DA3
:101E400011240895AEE0B0E0E8E2FFE00C942E1219
:101E50000D891E8986E08C831A8309838FEF9FE7A3
:101E60009E838D83CE014996AC016F89788DCE011A
:101E700001960E94440FEF81F885E00FF11F108258
:101E80002E96E4E00C944A12ACE0B0E0EAE4FFE005
:101E90000C9420127C016B018A01FC0117821682CE
:101EA000838181FFC6C188248394912C8C0E9D1E52
:101EB000F7019381F60193FD859193FF81916F0165
:101EC000882309F4B2C1853239F493FD859193FFDB
:101ED00081916F01853229F4B70190E00E9457117A
:101EE000E7CF512C312C20E02032A8F48B3261F066
:101EF00028F4803251F0833271F40BC08D3239F006
:101F0000803349F4216028C02260246025C0286005
:101F100023C0206121C027FD27C0382F30533A301D
:101F200078F426FF06C0FAE05F9E300D1124532E90
:101F300013C08AE0389E300D1124332E20620CC06D
:101F40008E3221F426FD71C1206406C08C3611F456
:101F5000206802C0883641F4F60193FD859193FF15
:101F600081916F018111C0CF982F9554933018F053
:101F70009052933028F40C5F1F4FFFE3F9830DC09C
:101F8000833631F0833771F0833509F05EC023C0AA
:101F9000F801808189830E5F1F4F44244394512CA4
:101FA000540115C03801F2E06F0E711CF801A080D9
:101FB000B18026FF03C0652D70E002C06FEF7FEF98
:101FC000C5012C870E944C112C0183012C856FE7E1
:101FD000262E222218C03801F2E06F0E711CF80183
:101FE000A080B18026FF03C0652D70E002C06FEFB6
:101FF0007FEFC5012C870E9441112C012C8550E8F0
:10200000252E222A830123FC1CC006C0B70180E2D2
:1020100090E00E9457113A94832D90E0481659069B
:10202000A8F30FC0F50127FC859127FE81915F0180
:10203000B70190E00E94571131103A94F1E04F1A25
:1020400051084114510471F7EDC0843611F08936FE
:1020500041F5F80127FF07C060817181828193817A
:102060000C5F1F4F08C060817181882777FD8095C4
:10207000982F0E5F1F4F4FE6B42EB22297FF09C074
:1020800090958095709561957F4F8F4F9F4FF0E8A9
:10209000BF2A2AE030E0A4010E948311A82EA818CC
:1020A00043C0853731F43FEEB32EB2222AE030E050
:1020B00024C099EFB92EB2228F36B9F020F48835BA
:1020C00009F0B3C00DC0803721F0883709F0ADC0EA
:1020D00002C020E1B22AB4FE0BC084E0B82A08C0D6
:1020E00024FF09C0E6E0BE2A06C028E030E005C0B3
:1020F00020E130E002C020E132E0F801B7FE07C085
:1021000060817181828193810C5F1F4F06C0608165
:10211000718180E090E00E5F1F4FA4010E94831147
:10212000A82EA818FFE7BF22B6FE0BC02B2D2E7FCE
:10213000A51450F4B4FE0AC0B2FC08C02B2D2E7EAC
:1021400005C07A2C2B2D03C07A2C01C0752C24FFDE
:102150000DC0FE01EA0DF11D8081803311F4297E4E
:1021600009C022FF06C07394739404C0822F86783E
:1021700009F0739423FD14C020FF0FC05A2C731470
:1021800060F4530C5718732C08C0B70180E290E03C
:102190002C870E94571173942C857314B0F304C0DC
:1021A000731410F4371801C0312C24FF12C0B7018A
:1021B00080E390E02C870E9457112C8522FF1EC0DF
:1021C00021FF03C088E590E002C088E790E0B701F6
:1021D0000CC0822F867891F021FD02C080E201C000
:1021E0008BE227FD8DE2B70190E00E94571106C0F7
:1021F000B70180E390E00E9457115A94A514C0F3F0
:10220000AA94F401EA0DF11DB701808190E00E94CB
:102210005711A110F5CF06C0B70180E290E00E94EF
:1022200057113A943110F8CF43CEF7012681378108
:1022300002C02FEF3FEFC9012C96E2E10C943C1253
:10224000F999FECF92BD81BDF89A992780B508957E
:10225000A8E1B0E042E050E00C94E311262FF99998
:10226000FECF1FBA92BD81BD20BD0FB6F894FA9A79
:10227000F99A0FBE019608950E942E11272F0C94F3
:102280002F11FC010590615070400110D8F7809526
:1022900090958E0F9F1F0895FC0161507040019032
:1022A0000110D8F7809590958E0F9F1F08950F937A
:1022B0001F93CF93DF938C01EB018B8181FD03C0D2
:1022C0000FEF1FEF1AC082FF0DC02E813F818C815E
:1022D0009D812817390764F4E881F9810193F98316
:1022E000E88306C0E885F985802F0995892B41F799
:1022F0008E819F8101969F838E83C801DF91CF914C
:102300001F910F910895FA01AA27283051F1203129
:1023100081F1E8946F936E7F6E5F7F4F8F4F9F4F79
:10232000AF4FB1E03ED0B4E03CD0670F781F891FBB
:102330009A1FA11D680F791F8A1F911DA11D6A0F89
:10234000711D811D911DA11D20D009F468943F913C
:102350002AE0269F11243019305D3193DEF6CF013B
:102360000895462F4770405D4193B3E00FD0C9F701
:10237000F6CF462F4F70405D4A3318F0495D31FD6E
:102380004052419302D0A9F7EACFB4E0A6959795C1
:10239000879577956795BA95C9F700976105710597
:1023A00008959B01AC010A2E0694579547953795E1
:1023B0002795BA95C9F7620F731F841F951FA01D3B
:1023C0000895DC01CB01FC01F999FECF06C0F2BDF6
:1023D000E1BDF89A319600B40D9241505040B8F7E3
:1023E0000895052E97FB16F4009407D057FD0DD0E5
:1023F0000E94571207FC09D07EF490958095709545
:1024000061957F4F8F4F9F4F089550954095309520
:1024100021953F4F4F4F5F4F08950E947912A59F1E
:10242000900DB49F900DA49F800D911D11240895CF
:10243000B7FF0C940D120E940D12821B930B08958E
:102440002F923F924F925F926F927F928F929F92C4
:10245000AF92BF92CF92DF92EF92FF920F931F93B2
:10246000CF93DF93CDB7DEB7CA1BDB0B0FB6F89463
:10247000DEBF0FBECDBF09942A88398848885F84A3
:102480006E847D848C849B84AA84B984C884DF8014
:10249000EE80FD800C811B81AA81B981CE0FD11DF8
:1024A0000FB6F894DEBF0FBECDBFED010895A1E2D7
:1024B0001A2EAA1BBB1BFD010DC0AA1FBB1FEE1FBE
:1024C000FF1FA217B307E407F50720F0A21BB30B09
:1024D000E40BF50B661F771F881F991F1A9469F785
:1024E00060957095809590959B01AC01BD01CF01E1
:1024F0000895A29FB001B39FC001A39F01D0B29FD6
:0E250000700D811D1124911D0895F894FFCFD8
:10250E00010000001E000116070A00580203090F01
:10251E000F0F0F0F0F0F0F00010203040506070820
:10252E00090001020304050690B6080087B60800EC
:10253E0023FC0700C7F806004C3F0600439100003D
:10254E00573F0600D2F806002BFC0700A6B608007F
:10255E00F51A0500BA3F1100783D1100DD3E11005D
:10256E00E43E1100FE3E110022E72700E0FE2D00A2
:10257E00FDF8420001010000000000002530376C1C
:10258E00640068656C70007365742074696D6520F5
:10259E0059594D4D44442068686D6D73730D0A0092
:1025AE007365742074696D65666F726D6174205BFE
:1025BE0030206F7220315D0D0A00736574206461E6
:1025CE007465696E74657276616C20393939393982
:1025DE000D0A007365742064617465736563203938
:1025EE00393939390D0A0073657420756461746167
:1025FE007365632039393939390D0A0073657420D2
:10260E006272696768742064617974696D65205BB4
:10261E003120746F20395D0D0A007365742062726B
:10262E0069676874206E69676874205B3120746F07
:10263E0020395D0D0A0073657420686F7572206411
:10264E00617974696D65205B3020746F2032335D63
:10265E000D0A0073657420686F7572206E69676865
:10266E0074205B3020746F2032335D0D0A00736569
:10267E00742031322F323420666F726D6174205B9C
:10268E0030206F7220315D0D0A00636174686F64D3
:10269E00202D3E20436174686F6420706F69736FE4
:1026AE006E696E670D0A0073656B616920202D3EA1
:1026BE0020535445494E533B47415445206C696B5A
:1026CE0065206566666563740D0A00736176652024
:1026DE0020202D3E20777269746520454550524F5B
:1026EE004D0D0A0073686F772020202D3E207368F1
:1026FE006F7720616C6C2073657474696E670D0A58
:10270E000074696D652020202D3E206368616E6720
:10271E006520746F20636C6F636B206D6F64650D45
:10272E000A0039393939393A206E756D6572696327
:10273E00206E756D626572203020746F20363535CF
:10274E0033350D0A002D2D2D0D0A0073657420747E
:10275E00696D65666F726D6174200076616C75656A
:10276E00203D2025640D0A007365742074696D6523
:10277E0020007365742064617465696E7465727689
:10278E00616C2000736574206461746573656320E9
:10279E0000736574207564617461736563200063F2
:1027AE006174686F6400446F6E652E0073656B61B3
:1027BE006900736574206272696768742064617958
:1027CE0074696D6520007365742062726967687440
:1027DE00206E69676874200073657420686F757267
:1027EE002064617974696D65200073657420686F6B
:1027FE007572206E696768742000736574203132BB
:10280E002F323420666F726D6174200073617665AD
:10281E0000454550524F4D20777269746520636FA5
:10282E006D706C6574650D0A0074696D6500736872
:10283E006F77007365742074696D65666F726D6174
:10284E00742025640D0A00736574206461746569D3
:10285E006E74657276616C3A2025640D0A0073659C
:10286E007420646174657365633A2025640D0A00F3
:10287E007365742075646174617365633A202564B1
:10288E000D0A007365742062726967687420646152
:10289E007974696D653A2025640D0A00736574209C
:1028AE00627269676874206E696768743A2025647D
:1028BE000D0A0073657420686F75722064617974F7
:1028CE00696D653A2025640D0A0073657420686F82
:1028DE007572206E696768743A2025640D0A00735C
:1028EE0065742031322F323420666F726D61743A06
:0628FE002025640D0A0014
:00000001FF
